:10000000C014002035080000330800003308000049
:10001000330800003308000033080000000000002F
:100020000000000000000000000000003308000095
:10003000330800000000000033080000330800000F
:1000400033080000330800003308000033080000C4
:1000500033080000330800003308000033080000B4
:1000600033080000330800003308000033080000A4
:100070003308000033080000330800003308000094
:100080003308000033080000330800003308000084
:100090003308000033080000330800003308000074
:1000A00033080000610200007102000085020000B8
:1000B00099020000AD020000BD020000D102000064
:1000C000E5020000F9020000090300001D03000022
:1000D000310300003308000033080000210800004D
:1000E0003308000033080000330800003308000024
:1000F0003308000033080000330800003308000014
:100100003308000033080000330800003308000003
:1001100033080000330800003308000033080000F3
:1001200033080000330800003308000033080000E3
:1001300033080000330800003308000033080000D3
:1001400033080000330800003308000033080000C3
:1001500033080000330800003308000033080000B3
:1001600033080000330800003308000033080000A3
:100170003308000033080000330800003308000093
:1001800010B5054C237833B9044B13B10448AFF3D1
:1001900000800123237010BD340400200000000003
:1001A0007C0A00000C4B43B10C480D4910B5AFF36D
:1001B00000800C48036823B910BD0A48036833B9AE
:1001C0007047094B002BF7D0BDE810401847064B8D
:1001D000002BF5D0184700BF000000007C0A00008B
:1001E000380400207C0A0000000000002DE9F04FD8
:1001F00083B00191470207F1804707F56127D7F8DF
:10020000D0A0154B1B68FBB10646144D0024A9462F
:100210004FF0010BDFF8408005E001340835D8F8D5
:100220000030A34210D959F83430B6EB531FF4D143
:1002300003F01F030BFA03F313EA0A0FEDD06B6808
:10024000002BEAD09847E8E7019B0AEA0303C7F8C6
:10025000D83003B0BDE8F08F8004002050040020A7
:1002600008B5FF210020014B984708BDED010000B3
:1002700008B54FF47F410020014B984708BD00BFEF
:10028000ED01000008B54FF47F010020014B9847B5
:1002900008BD00BFED01000008B54FF07F41002010
:1002A000014B984708BD00BFED01000008B5FF21D4
:1002B0000120014B984708BDED01000008B54FF43F
:1002C0007F410120014B984708BD00BFED010000B0
:1002D00008B54FF47F010120014B984708BD00BFCE
:1002E000ED01000008B54FF07F410120014B984718
:1002F00008BD00BFED01000008B5FF210220014B41
:10030000984708BDED01000008B54FF47F41022079
:10031000014B984708BD00BFED01000008B54FF440
:100320007F010220014B984708BD00BFED0100008E
:1003300008B54FF07F410220014B984708BD00BF30
:10034000ED01000070B483B0EFF31083B3FA83F3D0
:100350005B09019372B6BFF35F8F00220E4B1A70D8
:10036000019D83000D4C54F82060012202FA01F136
:100370003143203303F47F7343F02A43084A9365E3
:1003800044F820102DB10122034B1A70BFF35F8F88
:1003900062B603B070BC70470000002020000E4021
:1003A00000000E4030B583B00446EFF31083B3FA7B
:1003B00083F35B09019372B6BFF35F8F00220C4B8E
:1003C0001A70019D0B4B9B6A63B12DB10122084B42
:1003D0001A70BFF35F8F62B621460220064B984722
:1003E00003B030BD05210120034B9847EDE700BF66
:1003F0000000002000000E404503000030B583B02F
:100400000446EFF31083B3FA83F35B09019372B6EA
:10041000BFF35F8F00220C4B1A70019D0B4BDB6A00
:1004200063B12DB10122084B1A70BFF35F8F62B622
:1004300021460320064B984703B030BD062101201A
:10044000034B9847EDE700BF0000002000000E407E
:100450004503000008B5A84B984200F0908120D9D0
:10046000A64B984200F0AF8140F2AE80A44B984278
:1004700000F0B88140F2ED80A24B984200F0BC81C0
:1004800000F20681A3F50063984200F0B08103F505
:100490008063984240F0FB80022105209A4B9847E8
:1004A00008BDA3F59023984200F01B8149D8A3F51D
:1004B0008033984200F0098121D8A3F58033984217
:1004C00000F0F48012D9914B984200F0F38003F5CC
:1004D0008043984212D103208D4B9847874B1A6C6A
:1004E00042F055028B4999651A6408BDB0F1402F5E
:1004F00003D10020864B984708BD08BD08BD864B38
:10050000984200F0E68012D9844B984200F0E580D2
:1005100003F5F843984213D108207D4B9847774B59
:100520001A6C42F004027B4999651A6408BDA3F570
:100530007053984203D10520754B984708BD08BDFC
:1005400008BD774B984200F00E8122D8A3F5803386
:10055000984200F0F9800BD9724B984200F0FF806E
:1005600003F58043984213D10D20694B984708BD8D
:10057000A3F5804398420AD10A20654B98475F4B08
:100580001A6C42F00402634999651A6408BD08BDFB
:1005900008BD654B984200F0EA800BD9634B984246
:1005A00000F0E98003F5804398420CD11220584BAB
:1005B000984708BDA3F58043984203D10F20544BC0
:1005C000984708BD08BD08BDA3F57C33984200F0EC
:1005D000E6801FD8A3F51433984200F0D4800FD9D9
:1005E000534B984200F0D38003F58063984210D1BA
:1005F00002210120444B984701204E4B984708BDEB
:10060000A3F58043984203D11520414B984708BD7C
:1006100008BD08BD484B984200F0C5800BD9474B38
:10062000984200F0C88003F58053984210D106200C
:10063000404B984708BDA3F50053984207D10021CD
:100640000120314B984703203A4B984708BD08BD1D
:1006500008BDA3F57843984200F0BA800CD9384B16
:10066000984200F0BA8003F5806398420ED10421CD
:100670000846254B984708BDA3F58063984204D1EE
:1006800001210420204B984708BD08BD08BD08BDC6
:100690002C4B984200F0B58003F58063984204D15A
:1006A00005210846184B984708BD08BD0120184B86
:1006B000984708BD0220164B9847104B1A6C42F021
:1006C0005502144999651A6408BD0420104B9847D7
:1006D00008BD06200E4B984708BD07200C4B9847D5
:1006E00008BD09200A4B9847044B1A6C42F00402DB
:1006F000084999651A6408BD0000074000000E40D3
:1007000000000F40000C0F404503000000000140B6
:10071000A5030000400000AA00C0014000C4014041
:100720000000044000800340004006400080064076
:1007300000000A40FD03000000400A4000500A404B
:10074000000C0E4000100F400B20304B9847304BF0
:100750001A6C42F004022F4999651A6408BD0C20F6
:100760002A4B984708BD0E20284B984708BD1020FB
:10077000264B984708BD1120244B984708BD1320ED
:10078000224B984708BD1620204B984708BD0121F1
:100790000846214B98470020204B984708BD02206F
:1007A0001E4B984708BD042101201B4B984704208D
:1007B0001A4B984708BD03210120174B9847052085
:1007C000164B984708BD00210420134B984708BDDD
:1007D00002210420104B984708BD032104200E4B32
:1007E000984708BD002105200B4B984708BD012103
:1007F0000520094B984708BD03210520064B984763
:1008000008BD04210520044B984708BDA50300003E
:1008100000000E40400000AA45030000FD03000058
:1008200008B5024B1B68984708BD00BF8404002030
:100830007047FEE708B5174B174A9A4210D0174B7E
:10084000144A9A420CD2013B9B1A23F0030304334F
:100850001344114951F8040B42F8040B9A42F9D1A0
:100860000F4B104A9A420AD2013B9B1A23F0030312
:1008700004331344002142F8041B9342FBD10A4A7B
:100880000A4B23F07F039360094B9847094B984725
:10089000FEE700BF000000207C0A000034040020B6
:1008A000BC0400203404002000ED00E00000000043
:1008B000E5080000B908000008B5074B9847074C49
:1008C0002046074B984704236364C4F868312246E6
:1008D00093655365FCE700BF3108000000100E402F
:1008E0005504000070B50F4E0F4D761BB61018BFA3
:1008F000002405D0013455F8043B9847A642F9D1AD
:100900000A4E0B4D761B00F0A7F8B61018BF002456
:1009100006D0013455F8043B9847A642F9D170BD82
:1009200070BD00BF640A0000640A00006C0A000089
:10093000640A0000024B13B1024800F005B870478A
:100940000000000055090000002301461A46184621
:1009500000F01EB838B50A4C0A4D641BA4100AD02A
:1009600004F18043013B05EB8305013C55F8043954
:100970009847002CF9D1BDE8384000F077B800BFA7
:100980007C0A0000780A0000704700BF704700BF73
:100990002DE9F8432C4D0646286898460F469146A7
:1009A000FFF7F2FF294B1C68D4F84831002B3ED0EA
:1009B0005A681F2A1CDC02F1010E76B103EB82019A
:1009C0000124C1F88890D3F8880194402043022E76
:1009D000C3F88801C1F8088123D00232C3F804E0CB
:1009E000286843F82270FFF7D1FF0020BDE8F883A4
:1009F000174B0BB34FF4C870AFF300800346D8B168
:100A0000D4F848210260002141600A46C4F8480138
:100A10004FF0010EC0F88811C0F88C11002EDCD008
:100A2000CCE7D3F88C110C43C3F88C41D5E704F51F
:100A3000A673C4F84831BBE72868FFF7A7FF4FF05B
:100A4000FF30BDE8F88300BF30040020540A0000E6
:100A50000000000008000020F8B500BFF8BC08BC8A
:100A60009E46704735090000A5010000F8B500BF9B
:0C0A7000F8BC08BC9E46704781010000E5
:100A7C00010000000000000000000000F402002053
:100A8C005C030020C40300200000000000000000F4
:100A9C00000000000000000000000000000000004A
:100AAC00000000000000000000000000000000003A
:100ABC00000000000000000000000000000000002A
:100ACC00000000000000000000000000000000001A
:100ADC00000000000000000000000000000000000A
:100AEC0000000000000000000000000000000000FA
:100AFC0000000000000000000000000000000000EA
:100B0C0000000000000000000000000000000000D9
:100B1C0000000000000000000000000000000000C9
:100B2C0001000000000000000E33CDAB34126DE666
:100B3C00ECDE05000B0000000000000000000000CF
:100B4C000000000000000000000000000000000099
:100B5C000000000000000000000000000000000089
:100B6C000000000000000000000000000000000079
:100B7C000000000000000000000000000000000069
:040EAC009804002086
:0400000300000835BC
:00000001FF
